:020000041000EA
:1000000000B5324B212058609868022188439860DF
:10001000D860186158612E4B002199600221596106
:100020000121F02299502B49196001219960352056
:1000300000F044F80222904214D00621196600F024
:1000400034F8196E01211966002018661A6600F04E
:100050002CF8196E196E196E052000F02FF8012189
:100060000842F9D1002199601B49196000215960AB
:100070001A491B48016001219960EB211966A021F2
:10008000196600F012F800219960164914480160C1
:100090000121996001BC002800D000471248134993
:1000A000086003C880F30888084703B5996A0420EC
:1000B0000142FBD001200142F8D103BD02B5186610
:1000C0001866FFF7F2FF186E186E02BD00000240BE
:1000D000000000180000070000035F00212200005C
:1000E000F4000018222000A00001001008ED00E03C
:1000F00000000000000000000000000074B24E7A12
:1001000000200420F7010010C3010010C5010010F9
:10011000C1010010C1010010C1010010C101001097
:10012000C1010010C1010010C1010010C701001081
:10013000C1010010C1010010C9010010CB01001065
:10014000CD010010CD010010CD010010CD01001037
:10015000CD010010CD010010CD010010CD01001027
:10016000CD010010CD010010CD010010CD01001017
:10017000CD010010CD010010CD010010CD01001007
:10018000CD010010CD010010CD010010CD010010F7
:10019000CD010010CD010010CD010010CD010010E7
:1001A000CD010010CD010010CD010010CD010010D7
:1001B000CD010010CD010010CD010010CD010010C7
:1001C00000BE00BE00BE00BE00BE00BEEFF3058054
:1001D000103800BEF2EB8871C0760110E076011095
:1001E0003802001090A31AE71E481F49086006C88D
:1001F00081F3088810471D480068002801D019487D
:10020000F3E70DA40ECC002902D000F012F8F9E7B4
:100210001749184A002000E001C19142FCD116495B
:100220008847164988471649884700BEFDE701C937
:1002300001C29A42FBD37047E0760110C000002053
:10024000241A002044900110000004200000042023
:100250004490011000100420001004200000000051
:10026000704700000000000008ED00E0000000D032
:10027000241A002058760020254200101504001092
:100280001D420010F8B5C0460448054B10B5834226
:1002900003D0044B002B00D0984710BD241A002037
:1002A000241A00200000000006480749091A8B1094
:1002B000C90FC91810B5491003D0044B002B00D04A
:1002C000984710BD241A0020241A002000000000C6
:1002D00010B5074C2378002B09D1FFF7D5FF054B4C
:1002E000002B02D0044800E000BF0123237010BDA2
:1002F0008063002000000000BC600110054B10B5B9
:10030000002B03D00449054800E000BFFFF7CCFFF5
:1003100010BDC0460000000084630020BC600110D6
:10032000024A11684B424B411360704744750020EC
:1003300070B5D02480252406ED000A2000216561D7
:1003400001F06CF880212B48A5618900826A6368FE
:100350000B42FBD0D0248021264D24068900A86AB8
:1003600063680B42FBD1801A02F0DEFA02F03CFB1C
:10037000214A224B01F0A9FE214B002201F0A5FEEB
:1003800001F05AFF1F4D00222900286080251E48D9
:100390006D0106F045FD0A200021656101F03EF87F
:1003A000D0208021A561134C00060901A26A436890
:1003B0000B42FBD0D02480210E4D24060901A86AEF
:1003C00063680B42FBD1801A02F0AEFA02F00CFB1C
:1003D000094A0A4B01F079FE094B002201F075FE33
:1003E00001F02AFF094C002220602100084806F095
:1003F00017FD70BD0040054048C153C8957A363F8F
:100400000000E03FA4740020E0740020A8740020E5
:10041000E4740020F0B5DE4657464E464546E0B54A
:100420006D4BC1B001936D4B00216D4A00930120CB
:100430006C4B07F045FD192000F070F9D0248023A3
:1004400024069B04042063629A4600F067F9102397
:100450000520636200F062F920230620636299465A
:1004600000F05CF940230720636200F057F9802315
:100470000920636200F052F980239B000A20A362E6
:1004800000F04CF98023DB000B206362984600F0FB
:1004900045F9802380271B01A3620C2002AD7F0158
:1004A00000F03CF90CAE2800676207F067FC3300EF
:1004B00007CD07C3FA2006CD06C38000782107F0D8
:1004C00019FD051E06D041B0F0BCBB46B246A94698
:1004D000A046F0BD00223300110011A807F022FB56
:1004E000414A424911AB0AA807F066FB08F044FBF9
:1004F0003F4B02000AA93F4807F098FB08F03CFB7D
:100500003D4B02000AA93D4807F090FB08F04CFB68
:100510003B4B02009B460AA93A4B584607F0BAFBF0
:10052000394B3A4A009311A9002309A807F0E6FBCA
:100530003300022211A91EA806F0F6FF09A91EA881
:1005400007F08CF8324E334B3200594600951EA806
:1005500007F04AF8534663614B4663614346A36123
:1005600000232D4AA76113602C4A356013602C4E7E
:100570000FE080239B046361102363611033636188
:1005800020336361403363610023204A1EA807F0D3
:1005900091FA3368012BECD180239B0463619A4666
:1005A000102340278025FA20636199461033636148
:1005B0004000A761A561984600F042FF5346A36141
:1005C0004B46FA20A36143464000A3616761656121
:1005D00000F036FFD8E7C046B906001081060010CB
:1005E000610600107D06001028730110C060011024
:1005F000CC600110E0740020DC600110E474002085
:1006000060750020F06001103103001000E1F50575
:10061000AC74002021030010A4740020A8740020F2
:100620004475002070B50C0000F0A6FF00230B4AB3
:1006300006000D0001F01CFB002320606160074AEA
:100640003000290001F014FB100053019B1A9A009E
:100650001218D2000020A26070BDC04640420F00B8
:1006600010B5054C2378002B01D1012010BD03F0FB
:1006700097FE00232370F8E7F80F00200120704751
:10068000F0B5C6460F001600984600B5002A0ED0F9
:10069000002402E00134A64209D03D5D280003F0A9
:1006A000CFFE8542F6D0012342462600137030006B
:1006B00080BCB846F0BDC046F0B5C64600B51700D0
:1006C0001C00884600F058FF02000B00002F23D0CA
:1006D0006101091B89000919C9000C00CD17A41874
:1006E0005D41002608E003F05FFE831C0DD0434609
:1006F00098550136B7420BD000F03EFF22002B0088
:10070000121A8B411000002BEDDA0123069A1370A8
:10071000300080BCB846F0BD0026F9E70123D022A6
:1007200083404021120693629361094A83009A181C
:100730001268C0005140C0220A4006498C466344FA
:100740001A60054B9C460523604443607047C046D1
:1007500004C0014004D00140004001408023DB057B
:100760001868000F7047C0460FB400B5084883B042
:1007700003F0B2FE049B002B07D005A918000191DD
:1007800003F018FD034803F0A7FE012003F02AFD43
:10079000006101101061011070B5EFF3108C72B69A
:1007A0000D4D2B68002BFCD0BFF35F8F0724CB08C7
:1007B000C618C05C01230C40A3401C000440034247
:1007C00007D103433370BFF35F8F2C608CF3108825
:1007D00070BD1000FFF7C8FF2C0100D0F8B54746E8
:1007E000CE46884680B5EFF3108C72B6214D2C684A
:1007F000002CFCD0BFF35F8F9A422CD8D408072777
:10080000055D061901241740BC402C421FD007216A
:100810000127894609E0D408055D06194C463900D0
:100820001440A1400C00294211D001329342F2D26F
:1008300001204042BFF35F8F00220E4B1A608CF301
:10084000108800280FDBC0BCB946B046F8BD2C4369
:1008500010003470EEE7BFF35F8F00232B608CF342
:100860001088012040424346002BECD00898FFF747
:100870007BFFC0462C0100D0044A1078431CDBB239
:10088000172B00D9102313707047C046F90F0020B2
:1008900000B5054B83B00100009318221F230348C5
:1008A000FFF79CFF03B000BD14610110F46B002042
:1008B0000021044B044ABFF35F8F02C39342FAD175
:1008C0007047C046000100D0800100D0054B064AA9
:1008D0001360064A136053609360D36013615361E1
:1008E000936170478080808000E400E004E400E0D1
:1008F0001F2318401E3B8340002905D0C021044A15
:100900004900535013607047802201498B50FAE729
:1009100000E100E001228240034B1B6813405A1E95
:100920009341D8B27047C04600E100E00123834004
:10093000014A13607047C04600E200E0084B1030E7
:100940009B688000C358002B07D0064A00209B1AE2
:100950002F229A424041C0B270470020FCE7C046B7
:1009600000ED00E0FC0F002070B50D00EFF31086E5
:1009700072B60F4A1368002BFCD0BFF35F8F0D4B8C
:1009800010309B6884001B590B4A934203D09D4250
:1009900001D001F029F8074B9B681D51BFF35F8F11
:1009A000BFF35F8F0022024B1A6086F3108870BD80
:1009B000240100D000ED00E0CD010010F0B5574655
:1009C0004E46DE464546E0B585B00600029117006A
:1009D000EFF3108B72B6674A1368002BFCD0BFF39D
:1009E0005F8F0025644B5D579A46002D00DAA4E026
:1009F0006B00624C03935B199B009846A146C1446F
:100A00004B4652469B79103613705D4BB2009B6883
:100A1000019299580B1B2F2B34D95A4B994200D075
:100A2000A4E0039B584A9C46584B6544AD00635371
:100A3000434602336519E418554B0121043B1B1B47
:100A40001B055B0D13436B80524BEF71AB80FF2393
:100A5000AB71029BAB604B460B431900484B019AAC
:100A60009B689950BFF35F8FBFF35F8F0022414BAC
:100A70001A608BF3108805B0F0BCBB46B246A9469D
:100A8000A046F0BD01200A008243D379BB422FD893
:100A900045464E46130040491B1B5B415943090D17
:100AA0003A4B63533A4B02356519043B5B1B1B05FC
:100AB000354D5B0D2B4373800426B446E04444441B
:100AC000131F1B1B4C46A17102991B05A1604946CF
:100AD0005B0D2B43A380314BE77101431360BDE7EE
:100AE0005800C01880002018C679BE422BD90200D9
:100AF0000623D356002BF3DA101D82462848804681
:100B000004267642B446E14450464E46361A300535
:100B1000400D824656461C48957106439680039ABE
:100B2000944665441D4AAD00641922604246A37193
:100B3000029BA280E771A36090E700F055FF0025BB
:100B400053465D5754E7101D8246908840050015B6
:100B500084464046D444664604302018301AE026C5
:100B60000005400D360230438046C9E700F03CFFE7
:100B700057E7C046240100D053760020FC0F002028
:100B800000ED00E0CD01001000E0FFFF00A1FFFF3D
:100B90002C10002001BDFFFFAAAA000001488047D9
:100BA00001BD000070B501240443EFF30581EFF3AC
:100BB000108C72B6214A1368002BFCD0BFF35F8FF4
:100BC0001F4B05001F4AED1A6D416A43120D1E4D61
:100BD0008900AE6852B27658A6421CD006215956FA
:100BE00091421CD012215956914222D01E215956B1
:100BF000914220D02A2159560324914210D0134B00
:100C000019781A708171BFF35F8F00220B4B1A6045
:100C10008CF3108870BDAB680D4C5C50EFE700247E
:100C20006100091989005B18FF21997109499980B0
:100C3000E5E70124F4E70224F2E7C046240100D0EE
:100C4000FC0F0020AAAA000000ED00E0537600206F
:100C5000CD01001001BDFFFF00B5074B83B00100BF
:100C60000093002205230548FFF7B8FD002801DBAB
:100C70001F23181A03B000BD306101105776002001
:100C8000024B9C466144890001607047400000347B
:100C9000F8B5134D134E2C00FF27B5421ED2236822
:100CA000002B0FD0FFF7E8FD01002800FFF7E8FF59
:100CB000A780BFF35F8F0834B4420FD223682500AA
:100CC000002BEFD1FFF7D8FD01002800FFF7D8FF78
:100CD0002771BFF35F8F0834B442EFD3F8BDC0462D
:100CE0001C1A0020241A002010B50400FFF7C4FDD0
:100CF00001002000FFF7C4FFFF232371BFF35F8FC4
:100D000010BDC04610B504000120FFF7C1FD044B23
:100D10009C46604480002060BFF35F8F10BDC046DA
:100D200040000034034B9C46614489000160BFF3DE
:100D30005F8F7047400000340A4B1968EFF3108052
:100D400072B60A68002AFCD0BFF35F8F1B68BFF33E
:100D50005F8F00221A6080F3108840BF00200021BE
:100D60007047C04640750020F0B5DE4657464E46F7
:100D70004546E0B585B0EFF30582032313409A00A2
:100D800011000392B64A5258904601229A40B54B40
:100D900091461A6031E043469B881BB2002B00DB72
:100DA0009DE043469B79002B00D0EFE043460824AA
:100DB0001C5F002C00DA17E142465269630094463A
:100DC0001B19DB0063449C68DD68631C00D113E1E0
:100DD000A54B03999C4661449A6A0B69A01A9B1A19
:100DE000984200D20C61A04800F0BEFB241A8D414D
:100DF000002D00DDF8E000D12EE14B469A48436318
:100E0000434608229B5E9A46002BC4DB4246526949
:100E10005B0093465344DB009B445B469E68DF685F
:100E200000F0A2FB801BB9410029B4DB002F00DADF
:100E3000EDE05B468D4A1B69934200D1E0E04146FC
:100E40005A460820085E5288000410435A465169E9
:100E5000984704000D0023002B4300D1D7E0002D5C
:100E600000DBF0E0361BAF4134003D005B469C6088
:100E7000DD600021595E00298DDB43465B6922005D
:100E80009C462B0048004018C00060448668C76834
:100E9000921BBB41002B00DA7DE743466646020009
:100EA0000094019519810CE07B00DB19DB00F3183D
:100EB000009801999C68DD68001BA941002904DBAA
:100EC0001A000023D75E002FEEDA5B461F805346E0
:100ED000138043469B881BB2002B00DA61E7434630
:100EE0001A69EFF3108172B61368002BFCD0BFF3C0
:100EF0005F8F43469B8842461BB29A4601235B4262
:100F000093801369BFF35F8F00221A6081F310880A
:100F10005346002B00DA44E743465B699C460823AE
:100F200043449B4653465F0043465744FF00082214
:100F30009A5E67445E46BC68FD68002A19DB3B0088
:100F40000094019567469C4604E01E000023F25E73
:100F5000002A0BDB0098019953009B18DB00FB185B
:100F60009C68DD68001BA9410029EEDA6346BC4697
:100F70001F005346338000217B5E3A809A46002B47
:100F8000D0DA43469B79002B00D10FE7002342467D
:100F90009371434646460821595E08364B1C23D0C0
:100FA00047468C46556902E006004B1C17D04B00A3
:100FB0005B18DB00E8180A00E95E43881BB2002BCF
:100FC000F2DA01235B42DC178360C4606245ECD037
:100FD00031803B89944603803A814B1CE7D16446BB
:100FE000B846002C00DBE7E640BF05B0F0BCBB46CE
:100FF000B246A946A046F0BD6B1C00D0E8E6F2E67A
:101000005B465C69200023699847002821D15B4634
:1010100042461B8813811269EFF3108372B6116880
:101020000029FCD0BFF35F8F4246594652880A80A0
:101030004246514651801269BFF35F8F0021116013
:1010400083F31088A7E6084800F08EFA24184D4173
:101050000CE765682468FEE6002C00D1CDE6C3E706
:10106000D07400203C70054000400540690D001020
:1010700070B52E4C2569002D04D00A212C48FFF7AD
:10108000FFFD70BD2B4E0321300000F063FAE660D7
:10109000FFF7F2FB284B03229C46D02322701B064D
:1010A0001B6801216370254B6044A3600F238000FF
:1010B00020610220638063694942A1801980023166
:1010C000198647311D83585218315A5275325C398E
:1010D000995218320131995218320131995218320D
:1010E00001319952083518329D5202311832995205
:1010F00018320131995218320131995218320131A6
:1011000099521832013199521832013199520C4BCF
:101110000C49DC6001303562FFF726FC0121032019
:10112000FFF7E6FB084B1D60A7E7C0464410002010
:10113000407500200040054040000034FFFF1000D3
:10114000D0740020690D00103860054000487047D9
:1011500044100020F8B51F0008AB1B7804001600EF
:10116000002B07D100F008FA32003B00121A8B4125
:10117000002B4CDB2269EFF3108072B61368002B52
:10118000FCD0BFF35F8F62690223E15E94464B009F
:101190005B18DB006344002901DB1A886280226946
:1011A000BFF35F8F0025156080F31088002930DBC6
:1011B000069A9E60DF601A61079A5A615A88013266
:1011C0005204520C161C002A1FD0B0B20A045E80D2
:1011D00010432669EFF3108572B63268002AFCD0FE
:1011E000BFF35F8FA2881A80A1802369BFF35F8F4E
:1011F00000221A6085F31088074923788C46013253
:101200009A40E36863441A60F8BD0126DDE70020D8
:10121000FAE701204042F7E73C20000070B5C646DF
:10122000010000B50469EFF3108C72B62068002845
:10123000FCD0BFF35F8F02200D5E48696C008046D2
:101240006419E4004444002D01DB208848800869CB
:10125000BFF35F8F002606608CF31088002D30DB13
:10126000E36063880598013320615B0406985B0C9A
:10127000A26060611A1C002B21D090B22B04628006
:1012800018430A69EFF3108672B61368002BFCD07E
:10129000BFF35F8F8B8823808D800B69BFF35F8FD7
:1012A00000221A6086F310880B7801329A40CB68CE
:1012B00005498C4663441A6040BCB04670BD0122AB
:1012C000DBE701204042F7E73C20000010B54389EE
:1012D0000A14934233DD53009B184269DB009446A5
:1012E00004696344EFF3108C72B62268002AFCD0C4
:1012F000BFF35F8F5A88090494B2090C8A4208D060
:101300000369BFF35F8F00221A608CF310880020FE
:1013100010BD8022120214435C8001230269837194
:10132000BFF35F8F002111608CF3108805490278AC
:101330008C469340C268012062441360E8E70020B5
:10134000E6E7C0463C20000040787047F0B5040056
:101350000D0006267642F717C64636196F4100B5CE
:1013600082B08F4214D811D000F006F932003B0051
:10137000121A8B41002B15DC002B44D020002900D1
:1013800000F02EF902B080BCB846F0BD8642EBD921
:101390000026002700F0F0F832003B00121A8B41C3
:1013A000002BE9DD00F0E8F832003B00121A8B4117
:1013B000002B0ADB00230193144B320000931448E6
:1013C0003B00FFF72BFF0028D8DBB0460026BC46C9
:1013D000104A114F7B6A9C4504D8B96A8845CDD91B
:1013E0009C45CBD11168EFF3108072B60B68002BCF
:1013F000FCD0BFF35F8F1368BFF35F8F1E6080F375
:10140000108820BFE6E7002AB8D0CBE7390D0010DE
:1014100044100020407500200040054070B50400D5
:101420000D0000F0A9F800196941002902DBFFF75F
:101430008DFF70BD012001494042F8E7FFFFFF7FAB
:1014400070B5060000F098F8FA2204000D000023A1
:1014500030000021920001F029FA001969410029A9
:1014600002DBFFF773FF70BD012001494042F8E73E
:10147000FFFFFF7FF0B5CE46474680B504000D0064
:1014800083B0EFF30587002F3BD12F4E8146337891
:10149000F26804339B00916A9B58421A5B1A9A4285
:1014A0000ED320BF294A0020536AAB4203D3926A6D
:1014B000013091453CD803B0C0BCB946B046F0BD40
:1014C00000F05AF822002B00121A8B41002B26DB69
:1014D0001F4B2200009330002B000197FFF79EFE68
:1014E000011E1CDD194BA8465A6A954225D920BF1A
:1014F0003000FFF7EBFE154A0020536A9845DAD812
:10150000D5E7124A0020536A8B42D4D3926A013045
:10151000A242D0D2581A421E9041C0B2CBE70B4A29
:101520000020536AAB42C6D3926A01209145C2D9CA
:10153000E81A421E9041C0B2BDE79B6A9C42D7D9CF
:101540009542D5D1D3E7C046441000200040054065
:10155000390D001010B5024A0248FFF71DF910BD01
:101560004C610110F86B00200300416A0A00986A80
:10157000596A8A42FAD17047034B596A0A00986A3D
:10158000596A9142FAD170470040054070B5040095
:101590000D00124A536A1900966A536A8B42FAD1B7
:1015A0003000190024184D41AB4211D80ED02B0049
:1015B0000A494A6A9A42FCD307D1084A02E0516AB2
:1015C000994202D1916AA142F9D370BDA642EED9E7
:1015D000012301246442E5175B42E9E7004005402E
:1015E000064A536A9942FCD807D1044B02E05A6A72
:1015F000914202D19A6A8242F9D370470040054075
:10160000F8B5DE464E4657464546E0B58B460500E2
:101610000A991800160000F0EDFA0A9B6C001F02F0
:10162000324B64199C46A4006444636881469F421F
:1016300000D967602B1FDBB29846012B30D9C0233D
:1016400080229B01E31812011A60294BAD00595901
:101650009A4600291BD1226876017240E026802339
:10166000164042465B01E3181E60012A30D98023F0
:1016700080229B01E31812011A6053464A466760B4
:101680005A51F0BCBB46B246A946A046F8BD5869BF
:1016900000F0B0FA431C5800C0180338FDD2DAE756
:1016A0005B46012BCBD1C02303229B01E3181A60B8
:1016B000023AA3681A42FCD0E02322687601564021
:1016C0001E4080230A4A5B019246E3181E60AD006B
:1016D0005A462168514003220A401A6001225B46A3
:1016E0009A40A3681A42FCD0C1E7C046008000407F
:1016F0000C6C0020F0B546464F46D646C0B51F00DC
:10170000344B44009C462418A40064446368884613
:101710001600FF2B02D880235B006360031FDBB23F
:101720009A46012B30D9C02380229B01E318120175
:101730001A60294B85005959994600291BD1226806
:1017400076017240E0268023164052465B01E31882
:101750001E60012A30D9802380229B01E3181201E8
:101760001A6080235B0063604B465F51E0BCBA4661
:10177000B146A846F0BD586900F03CFA431C580039
:10178000C0180338FDD2DAE74346012BCBD1C02382
:1017900003229B01E3181A60023AA3681A42FCD0A4
:1017A000E0232268760156401E4080230A4A5B01EE
:1017B0009146E3181E60850042462168514003228D
:1017C0000A401A60012342469340A2681342FCD0AB
:1017D000C1E7C046008000400C6C0020014B800037
:1017E000C05870470C6C0020F8B5040020481D005C
:1017F00017000E0000F0FEF90100380000F0FAF9C1
:10180000069B29041B0319432368002B1EDB194B7D
:10181000194DE21853425A4180235B019C46120342
:10182000164B62441A60164B1A6017002B689F43D0
:10183000FBD1144B2660E2182123A06013602368BB
:10184000002BFCDA0823E1601360F8BD3F23226817
:101850001340B342DBD1A3681B051B0D8342D6D1D5
:10186000EE22E368D20213408B42D0D1EDE7C046AE
:10187000001BB7000040FDBF08C0004000E0004072
:1018800000F000400430000010B5140080221B4B13
:10189000D2051A6000281AD00123194A1843194B9F
:1018A000DA61194A42401A62596298628022134BE7
:1018B000D2051A601549164A1160E022D2041A6056
:1018C000002C07D18022134B12061A6010BD0D4B5D
:1018D000D861EBE763011B1B9A00802312191201E8
:1018E0005B049A4200D30C4A0C4B1A60054B5A60B9
:1018F0008022084BD2051A60E8E7C04600B00540D8
:10190000D3C007B0008005402D3FF84FFCFF010019
:101910000820014000A00540FFFFFF00A074002048
:101920008023024A9B000B43D3627047008005402E
:10193000142310B50100188804331B88984710BD84
:10194000162310B50100188802331B88984710BD74
:10195000F8B54746CE4680B50F1E19D014239946D8
:10196000043304000025012698464B461888434658
:1019700021681B88984701C4431E984101354042A5
:101980000640AF42F1D13000C0BCB946B046F8BD08
:101990000126F8E7142370B50400188804331B8867
:1019A0000D000549984703000020002C01DB0130A1
:1019B000A04029009847C04655420000AA23064A85
:1019C0001B0113602F230549D360054B1960536831
:1019D000002BFCDA7047C0460040024000B0FA001D
:1019E000006002407047C04610B50148FEF7BCFEDB
:1019F0007061011070B5074D074EB54209D2002441
:101A0000013E761BB60808CD984723000134B34247
:101A1000F9D170BD70600110AC600110054B064A31
:101A200006491A60064A074B1A6010000B68984373
:101A3000FBD1704700E00040BFCDFBFE08C0004076
:101A4000FE7F3C0000F00040044BDB6C002B03D118
:101A50008022034BD2021A607047C046000011502A
:101A60004C201150044A054B1A60054A1368DB01EB
:101A70008033FBD17047C046FFFFFF0100F00040FC
:101A800008C000404022034B9A675A671A67DA661B
:101A90007047C04600F0014010B5FEF709FF10BDC9
:101AA00070B5044D044C2800C022A16801F05CF818
:101AB000A56070BD0000002000ED00E0002310B51F
:101AC000294C82B0A367FFF779FF0122274B1A60E8
:101AD000636C012BFCD10322254B1A60224A936BC5
:101AE000012BFCD1013300930121224A2248043307
:101AF000FFF77AFE052301210093204A2048FFF7D3
:101B000073FE0022022104201E4BFFF7F3FD00228A
:101B1000012105201C4BFFF7EDFD002200210720CD
:101B20001A4BFFF7E7FD002200210820174BFFF7B3
:101B3000E1FD8023DB000093002200210920134BEC
:101B4000FFF75EFD0022104B00210620FFF7D2FDBB
:101B50000420FFF743FE0E4900F04CF8010000207E
:101B6000FFF7DEFE02B010BD008000403CB0004038
:101B700030B00040002F685900800240008C86473A
:101B800000C00240001BB70040597307006CDC0224
:101B900040420F0001480421014B1847601000200B
:101BA00051190010124A936F9B0815D29066D166A6
:101BB000002905D0FFE7FFE7FFE7516F106F70477F
:101BC00004B580210906C2175140002800D0C8433F
:101BD00014F00EFA002104BDF0B5146E556E576F67
:101BE000166FFFF7E3FF1466556657671667F0BD7B
:101BF000000000D0114A936F9B0813D21066516603
:101C0000002905D0FFE7FFE7FFE7516F106F70472E
:101C100004B5002801D00020C04314F0E9F90021E8
:101C200004BDC046F0B5146E556E576F166FFFF7C2
:101C3000E5FF1466556657671667F0BD000000D0D3
:101C400094464A4A926F9208624601D228E0C04602
:101C5000F0B5464E346E756E776F366F00F020F833
:101C60009446424A14665566576716676246F0BD49
:101C700094463E4A926F9208624601D254E0C046B2
:101C8000F0B53A4E346E756E776F366F00F04CF8E3
:101C90009446364A14665566576716676246F0BD25
:101CA000002B24DB11D000293EDA00B5C9434042A5
:101CB00000D1013100F038F8C943404200D1013170
:101CC000DB43524200D1013300BD002AEBD1002892
:101CD00001D1002905D00020C90FC90701D1C04397
:101CE000410800B514F074F90022002300BD00B5CE
:101CF00000290ADBDB43524200D1013300F014F823
:101D0000C943404200D1013100BDC943404200D126
:101D10000131DB43524200D1013300F005F8DB43CF
:101D2000524200D1013300BD002923D1002B18D12C
:101D3000002A0CD0BC460D4F38667A66002100237D
:101D4000FFE7FFE7FFE77A6F386F674670470028C5
:101D500001D00748010000B514F03AF90022002331
:101D600000BD02000B00002000217047000000D0E1
:101D7000FFFFFFFF002B00D0BFE0130C28D1002A8B
:101D8000E7D080B4114F39667A66FFE7FFE730B4D9
:101D9000040C7B6F396F1B0423433B667A66FFE7B5
:101DA000FFE7FFE7C04684B27B6F3D6F1B04234310
:101DB0003B667A66FFE7FFE7C04600232C042D0C44
:101DC0007A6F386F00196941B0BC7047000000D0CD
:101DD000F0B594460025140E01D112020835140FF7
:101DE00001D112010435940F01D192000235D40FB4
:101DF00001D152000135D40B0134254F7C66254CAE
:101E00003C660E0C93B2FFE7FFE7FFE73C6F6643CB
:101E1000360C7703BE467343DF0B5B04C01AB9412F
:101E2000130C7343DB18C91ACE086643360CB6444C
:101E300093B273431F0F1B01C01AB941130C7343B4
:101E40001F0B1B05C01AB941860D8F023E43664326
:101E5000360C092D24DB520A7243801A7703460A96
:101E60006643360C16235B1BDE40DF40BF19644619
:101E70006643821B7046043506330100D940A840F2
:101E8000C01900D30131A24206D20023F0BD0000E8
:101E9000000000D0FFFFFFFF121B0130F3D3F1E77A
:101EA00009277F1BFE406446A2B27243801A00D20B
:101EB0000139220C7243130C1204821A99410B004F
:101EC0007046043513370100F940A840801900D34B
:101ED0000131002B02D1A2420AD2F0BD013000D361
:101EE0000131121BFAD2013BF8D1A24200D2F0BD5F
:101EF000013000D30131121BF7E7F0B51C0C00D004
:101F000080E00CB400251C0A04D11B02160E3343DA
:101F1000120208351C0B04D11B01160F33431201AA
:101F200004359C0B04D19B00960F3343920002357D
:101F3000DC0B02D192185B4101351C0097186441FB
:101F40000134464F7C66464C3C660E0CFFE7FFE7CB
:101F5000FFE7C0463C6F6643360C7703BE4697B238
:101F60007743C01B00D20139C01B00D201399FB298
:101F70007743C91BC91B170C77437E04FF0B801BDB
:101F8000B941CE086643360C0C2D33DBB644120B38
:101F90001F053A431B0B97B27743C01B00D2013990
:101FA0009FB27743C91B170C77433E043F0C801B3D
:101FB000B941860D8F023E43664329277F1BFE40B1
:101FC0000C3D7746AF40BF1930BCA2B2ABB27243F2
:101FD0007343801A9941220C7243130C1204801A25
:101FE000994102000B000137001BA941F9D2781E6C
:101FF0000021F0BD0C277F1BFE4077467F0BAF40D2
:10200000FF19E0E700245D1C07D0144F7D66396698
:10201000FFE7FFE7FFE7FFE73C6F95B29EB265433E
:102020006643401BB141150C1E0C654366433604E4
:102030002F0C3E432D04401BB141994204D20200B3
:102040000B0020000021F0BD01D19042F7D3801A8F
:10205000994101349942F2D3F6E70000000000D024
:10206000FFFFFFFF48404140484018B41B4B5B68EE
:10207000FC46019308BD04DF2323001018B4174B5E
:102080001B68FC46019308BD00DF2D230010944619
:10209000134A926F920809D2624618B40F4BDB685C
:1020A000FC46019308BD0CDFE52500100C4AF0B595
:1020B000146E556E576F166F6246FFF7EEFF084AB3
:1020C0001466556657671667F0BD18B4034B9B68D6
:1020D000FC46019308BD08DF8924001080610020C0
:1020E000000000D0FFB550404240504059404B40A6
:1020F000594000E0FFB5154F4C00640D03D0BC42C1
:1021000004D10C0314D80020090D09055C00640DEE
:1021100003D0BC4204D11C030AD800221B0D1B05AE
:1021200001264B4009D44B4003D58B4200D182425B
:10213000FFBD9942FCD19042FFBD0B43DB18034326
:102140001343F5D0C9434918FFBD0000FF07000045
:1021500000B5FFF7CFFF804100BDC04600B5FFF7D7
:10216000C9FF01D9002000BD012000BD00B5FFF767
:10217000B9FF01D9002000BD012000BD00B5FFF767
:10218000B1FF804100BD012040054A00121804D86B
:102190005A00121801D80020704701207047000033
:1021A0000021002805D17047C1174840401AFAD0D5
:1021B000C90713B5064B1B6898470CBC441CA240CA
:1021C0001005120B0349091B09051943114310BDE2
:1021D0003C7500201F04000010B54C00620D8023E8
:1021E000D218DB00D21A5B057E2A10DD9E3A13DA84
:1021F000CC170903490819435242D1406400013405
:102200001532202A05DAD0400843604310BD002073
:1022100010BD0846604310BDC80FC018013810BD7E
:1022200018B4044B5B6AFC46019308BD24DF952774
:10223000001000008061002018B4044BDB6FFC46E6
:10224000019308BD7CDF152800100000806100208C
:10225000132370B51D78012D19D014DD1E48FFF72A
:102260006FFB06001D48FFF76BFB1D4C8022310001
:10227000200000F079FC022D06D01A48FFF758FB29
:10228000194B186070BD164C184BA364F5E7174B3B
:10229000134C23606360A360E36023616361A36107
:1022A000E36123626362A362E36223636363A36304
:1022B000E36323646364A364E36423656365A365E4
:1022C000E36523666366A366E36623676367A367C4
:1022D000E367A364D1E7C0465344000053460000BF
:1022E000806100204C3300003C750020F12200107A
:1022F00007B5604601880A0A0230DF2AFAD1C9B25E
:10230000820804D3028840880004104300E000687B
:10231000014A5050039007BD806100200FB403BCF8
:102320000CBCF0B50124E407634000E0F0B50C0DEF
:10233000CF0F661E3605891B640503D3C94340428F
:1023400000D30131640D03D0661CF60A07D0E41BEC
:1023500000207F00791C89078912803C24031D0D11
:10236000DF0F6E1E36059B1B6D0503D3DB43524208
:1023700000D301336D0D03D06E1CF60A07D0ED1BA0
:1023800000227F007B1C9B079B12803D2D032F1B8F
:10239000661B58D4A446202E46DA20371400BC40D1
:1023A0001D00BD40F24033412A4380185941CB0FF4
:1023B00005D0C943C04300226442504151416246A6
:1023C0004D0D28D10D0D07D100281FD024194041F3
:1023D0004941013A0D0DF9D0640006D3013000D314
:1023E0000131002C01D140084000013A0BD4941C6B
:1023F000E40A04D112051144DB071944F0BDD907E2
:10240000204B194300E0D9070020F0BD0029DDD1A1
:10241000002CDBD1F0BD0132C6074008CD072843B0
:102420004908002EE1D0D9E73C2E29DA203E40377A
:102430001400BC4000D00124F24014431A00BB40F9
:102440001C43D317ACE7AC46202F08DA2036040033
:10245000B4400D00B540F84039412843A5E73C2F72
:102460000CDA203F40360400B44000D00124F8408C
:1024700004430800B1400C43C117EAE710001900FB
:10248000002494E70000F07FF0B50C0D661E3605C1
:10249000891BE60A6405640D02D0651CED0A04D0B0
:1024A000002001210905803C2403A4461C0D671E61
:1024B0003F05DB1BE70A6405640D02D0651CED0ACD
:1024C00004D0002201231B05803C24037740644490
:1024D00097B484B296B27443070C7E43150C6F43D5
:1024E00080B26843361802D3012000043F1830043C
:1024F000350C00197D41844688B29AB250430C0CC9
:1025000062431F0C7C438EB27E43921902D3012694
:102510003604A4191604170C3618674101BC81B2A1
:102520009AB25143040C62431B0C5C4380B2584383
:10253000121802D30120000424181004130C4018B0
:1025400063412D185E410020474106BC88B293B21A
:1025500058430C0C6343120C544389B251435B182B
:1025600002D301210904641819041A0C09186241E4
:102570006D1856410020474118BCF902720D1143F5
:10258000F0026A0D1043ED020A0D03D16D194041AE
:102590004941013B124E9B1B7600B3420ED26D00A7
:1025A00007D30130002671416646354301D140080A
:1025B00040001B05C918E4072144F0BD0BDA0133C4
:1025C00006D1013004D101314F0D01D04908F2E7A5
:1025D000E1070020F0BD013631050020EBE70000E7
:1025E000FF030000F0B51C0D671E3F05DB1BE70A6B
:1025F0006405640D02D0661CF60A04D00022012393
:102600001B05803C2403D0252D060026F6432E66AC
:102610001E096E66CE0FF619B44649004F0D02D062
:102620007E1CF60A03D000200021403F3F033E1BE2
:10263000B600B444013F7F05C91B49082E6F01361F
:1026400076089C02950D25437543ED137543AD1334
:1026500001356D10F603761B0CB4CC02450D2C43EE
:10266000A2B2B3B25A43270C7B43350C6F43A4B2DA
:102670006C431B1902D3012424043F191C041D0CB4
:10268000A4187D4124196D41009A91B2ACB2614306
:10269000170C7C432B0C5F4392B25A43A41802D30D
:1026A00001221204BF182204230C52187B41019C02
:1026B0006C431B19520ED9010A434401A01A81B27E
:1026C000B2B2514303145A43360C734387B2774373
:1026D000D617D21900277E4136049B191704160C11
:1026E0007F185E417316ED18F301002680337541A3
:1026F000A90F06D16400690AE8055B0A184309D2EC
:102700002FE00422944480337541A90AA8059B0A4E
:10271000184326D3404149412404009A019B0D00EF
:102720005543641B4343E41A95B286B27543170CB4
:102730007E43030C5F4392B25A43B61802D3012280
:102740001204BF183204330C52197B4152429C418F
:10275000002C02D40022013051414008CA07104326
:10276000490802B06246D7079210084BD218084BAE
:102770009A4203D212058918C919F0BD0020002A17
:1027800001DC3900F0BD01331905F5E7FD03000058
:10279000FE070000002200B5203200F004F8080017
:1027A00000BD000000220B150AD410B5944600F0BD
:1027B0005FF81414013400DA0021CB17144C2047C1
:1027C0000020002170476244343A0CD40C2A07DA06
:1027D00004009140904052422032D440214310BD29
:1027E000D843D94310BD203207D40C4694405242FE
:1027F00020321141D040204310BD0800C9172032BB
:1028000003D452422032104110BD1800190010BDEF
:10281000C72700104A00520D144BD21A13DDFF2AAD
:102820001EDAD205CB0FDB071A43C300400F0903A2
:10283000490A084310435B0001D301D001307047BF
:102840004308FBD2704702D0C80FC00770470A0385
:1028500012130132F8D1420F072AF5D1012200E00C
:10286000FF22C80F00028018C005704780030000D7
:102870000A0DCC0F531E1B05C91A520503D3C943B9
:10288000404200D30131520D03D0531CDB0A07D064
:10289000121B00206400611C89078912803A120310
:1028A000014BD21A70470000FF030000514343431D
:1028B000C9188C46110C83B24B4310B4040C61430D
:1028C00092B280B2504362431C041B0C001910BC2E
:1028D00059411304120CC018514161447047000063
:1028E0004840414048400E4B5B6818470C4B1B6802
:1028F00018470C4A936F9B0802D2094BDB681847B4
:10290000F0B5146E556E576F166FFFF7F6FF054A58
:102910001466556657671667F0BD014B9B681847EC
:1029200080620020000000D0491A002808D1084623
:1029300070470000C10FC90700D54042002817D0DA
:10294000F44603B40B4B1B68984706BC81409E3885
:102950004042803107D20B0607D04900490AC00522
:102960001043084360470130F8E7490A8902F5E758
:10297000704700003C75002041000A0E80231B06B2
:102980007E2A0BDD9E3A0BDAC1174002400818433D
:102990005242D040490001314843704700207047FF
:1029A000C00FC01801387047C0420DD300B54000B9
:1029B0004008002100F012F8002801D4404200BD78
:1029C0008020000600BD0000034BDB69FC46184771
:1029D0001CDF8D2A0010000080620020014B5B6A22
:1029E0001847000080620020034BDB6FFC4618474D
:1029F0007CDFA52A0010000080620020132310B5A0
:102A000012481C78FEF79CFF0100012C0AD003DD60
:102A100080220F4800F0A8F80E48FEF789FF0E4B01
:102A2000186010BD0A4C5422200000F09DF80B4B9A
:102A30006365A365E36523666366A366E366236750
:102A40006367A367E3672362E361E5E7534600003A
:102A5000806200204C3300003C750020612A001089
:102A600007B5604601880A0A0230DF2AFAD1C9B2E6
:102A7000820804D3028840880004104300E0006804
:102A8000014A5050039007BD806200200021C2150A
:102A90008032803201D0024A104700207047000087
:102AA000CD2A0000C30FDB0741000A0E07D0FF2A22
:102AB00008D00909054A89181943400770471900C9
:102AC000002070470249C918FAE7000000000038EA
:102AD0000000F07F10B5040012F00EF8002804D0BA
:102AE000034B04199C4200D810BD0248FDF73CFE80
:102AF000000004207C61011070B505000C0011F08D
:102B000053FF6C43002804D0034B04199C4200D8A7
:102B100070BD0248FDF728FE000004207C61011012
:102B200010B50C0012F058FB002804D0034B041918
:102B30009C4200D810BD0248FDF716FE000004209C
:102B40007C61011010B511F0E1FF10BD01480421B6
:102B5000014B18477010002051190010014B1B68E1
:102B60001847000070100020014B5B6818470000F8
:102B700070100020EFF3108C72B6074B1A68002A11
:102B8000FCD0BFF35F8F41680068BFF35F8F002206
:102B90001A608CF310887047340100D030B51400EF
:102BA0001D00EFF3108172B6074B1A68002AFCD0A3
:102BB000BFF35F8F04604560BFF35F8F00221A6030
:102BC00081F3108830BDC046340100D030B501001B
:102BD00014001D00EFF3108C72B609480368002B37
:102BE000FCD0BFF35F8F0A684B680C604D60BFF389
:102BF0005F8F002101608CF310881000190030BD38
:102C0000340100D09A4200D2885470477047C046C1
:102C1000F8B557464E464546DE46E0B599460A9B0E
:102C200007009A460D9B8846934615000B9E9B070E
:102C300010D10C9B9E420DD29D1B14000E005D44D2
:102C400022004B46013431002020B847A542F7D17D
:102C5000B0460B9E002E27D0444675195346AA1B3A
:102C6000013E985D21004B46B847002EF6D1230067
:102C70002C0098460D9B9B070FD55B46E51A0C9BD5
:102C8000AB420AD94646984622004B4631002020E6
:102C90000135B8470134A845F6D82000F0BCBB4642
:102CA000B246A946A046F8BD2C00E3E7F0B54F4672
:102CB0004646D646C0B584B098460EAB1B78129FE8
:102CC000994694460D9C109B119EBA0725D4002E60
:102CD0004BD19C4200D3BFE001223A4092461F2CC8
:102CE00000D9B8E00C9A551E302201E0202C03D008
:102CF00001342A55A342F9D85246002A0DD0A642E3
:102D00000BD9202C44D00C9A551E302201E0202CE7
:102D10003ED001342A55B442F9D1FA064DD57A0590
:102D20003FD4002C39D10F9B102B00D179E00F9BA1
:102D3000022B00D18AE030230C9A012413704B46F9
:102D4000002B3FD02D230C9A135501340C9B624667
:102D500000930397434602960194FFF759FF04B08E
:102D6000E0BCBA46B146A846F0BD012215003D4080
:102D7000AA463A422FD04A46002A02D10C323A42A1
:102D800000D0013E9C42BAD21F2CABD9202E27D9AD
:102D90002024FA06DAD57A0503D4A3422DD0A64220
:102DA0002BD00F9B102B32D0022B20D0202CCDD03B
:102DB00030220C9B1B191A700134202CC6D04B46B4
:102DC000002BBFD17B070DD43B07BFD520230C9A26
:102DD00013550134BAE79C429FD21F2C00D881E7DB
:102DE00020249AE72B230C9A13550134AEE7202CAC
:102DF000ACD00C9B1B1901343AE0631E012C92D01D
:102E00000F9A102A2AD0022A2FD01C00D0E7BB0626
:102E10000ED4202C9AD00C9B1A19013478231370ED
:102E2000C4E7BB060DD478230C9A01241370BFE7C6
:102E3000202C00D18AE758220C9B1B191A700134F0
:102E4000B4E758230C9A01241370B1E70C9A60334D
:102E500001241370ACE7202400265EE7023CBA068A
:102E6000E9D40C9A12191C00D8E70C9A92465344E4
:102E700062221A709AE7C04610B5002800D110BD32
:102E800001F0DEFAFBE7C046F0B5DE4657464E4697
:102E90004546E0B59BB09B46249B89469846259BBA
:102EA0000B900C924046424619009A46FFF76BF988
:102EB000002800D0D8E0012240465146774B5242CC
:102EC000FFF75CF9002800D0CEE0012240465146D1
:102ED000734B5242FFF73CF9002800D0C4E00022B7
:102EE000002340465146FFF733F9002800D0B9E1EE
:102EF000424653460A9209938023289ADB001A40DF
:102F00000E92289A1A4201D1062326930A9A099B07
:102F10001600134300D0C7E0289B002500261B05A0
:102F200000D49BE100230D93269A0D9B9A4200DC6E
:102F30009FE1D01A431E26938023289ADB001A4370
:102F40000023002728920D93279B0024BB4200D921
:102F5000DC1B0223289A1A400E92289A134203D0AF
:102F60007B427B415B421C400D9B002B07D00A98A3
:102F700009992A003300FFF78AF80A900991002284
:102F8000002340465146FFF7E3F8002805D0802093
:102F900000068446099961440991289A414B0B9D8A
:102FA00013400493269B0A9A0293099B0394009270
:102FB000019349465B4628000C9A00F08BF9040007
:102FC000002F62D0289B220098061F23C017984329
:102FD000631C984649465B466530A8470D9B002513
:102FE000DA179C18DB0F9A465440013F01E0202D70
:102FF00013D00AAA94461F23200063440A210135F6
:103000005E19FEF7F7FD3031317020000A21FEF71E
:10301000F1FD26000400092EE9D8052306930023BC
:1030200004930A330393534605970B9F029312AB05
:10303000009342465B46494638000195FFF736FE4D
:103040000E9B0400002B20D00C9BC51A279BAB4283
:103050001BD91E0022005B46494620200135B84797
:103060000134AE42F6D810E0289B42460493279BD9
:1030700049460393269B0B98029353460092019373
:103080005B460C9A00F026F9040020001BB0F0BC4F
:10309000BB46B246A946A046F0BDC046FFFFEF7F43
:1030A000FFFFEFFFFFF7FFFF734B099F9C46780080
:1030B000400D6044FFF778F8704A714BFFF705F850
:1030C000704A714BFEF7DAFF3B03704A1B0B1A4341
:1030D00004000D00300011006D4B0022FEF7C5FF0B
:1030E0006C4A6D4BFEF7F1FF02000B002000290037
:1030F000FEF7C4FFFFF770F80D90FFF755F8674A29
:10310000674B04000D00FEF7E0FF0022654BFEF761
:10311000B5FFFFF761F8644A0600644B2000290000
:10312000FEF7D3FF040030000D000F96FFF73CF8C8
:103130005F4A604BFEF7C9FF02000B002000290028
:10314000FEF793FF02000B0006000F00FEF7BDFF25
:10315000320004000D003B0030003900FEF78EFF06
:10316000002210901191544B20002900FEF78FFF90
:103170000022524BFEF782FF02000B0020002900C4
:10318000FEF785FF00224E4BFEF778FF02000B0092
:1031900020002900FEF77BFF0D0080210400320093
:1031A0003B000020C905FEF760FF02000B00200075
:1031B0002900FEF763FF02000B0010981199FEF73B
:1031C00066FF0022314BFEF759FF3E4B0F9C9C4699
:1031D000644400222305FEF778FF05000E0002007C
:1031E0000B000A980999FEF7B3FF00280AD00D9B3F
:1031F0002800013B31000D930022304BFEF747FFC2
:1032000005000E00C6270D992B0063318F42BF4188
:1032100028997F420437090500D495E6334300D14D
:1032200082E6099C284A2100284B0A98FEF79EFF57
:10323000002808D000222100254B0A98FEF788FFBD
:10324000002800D070E6269B002B00D17CE60E9B68
:103250005A1E9341269AD31A269375E60023042713
:103260000D9371E643460A9380231B06534409934A
:1032700042E6002326935FE601FCFFFFFB799F50A7
:103280001344D33FB3C8608B288AC63F0000F03F89
:103290000000F83F61436F63A787D23F71A37909AC
:1032A0004F930A400000E03F1655B5BBB16B02409A
:1032B000EF39FAFE422EE63F00002C400000244089
:1032C00000001840FF0300002D431CEBE2361A3FBC
:1032D00080842E41F0B54E46DE4657464546E0B561
:1032E00097B09946209E219F229B8346984607913E
:1032F0000C923B00320030003900FEF744FF0028FA
:1033000000D0A9E1012230003900CA4B5242FEF739
:103310001FFF002800D0E1E0012230003900C64B39
:103320005242FEF72BFF002800D0B7E00022300009
:103330003900C24BFEF722FF002800D099E000229E
:1033400030003900BE4BFEF703FF002800D090E0AC
:103350000022002330003900FEF7FAFE002800D0DA
:10336000B1E000230D93249B5B0501D4062398460E
:1033700008AB9C461722002430234146624404E0F7
:10338000013413550139202C01D00929F8D8884679
:1033900030003900FEF720FF4346DA00A94B050054
:1033A0009B181A685B6808920993FEF7FDFE0200FD
:1033B0000B0030003900FEF758FE089A099BFEF713
:1033C00084FE0A900B91FEF72BFF8246FEF7E8FE83
:1033D00002000B000A980B99FEF747FE00229A4B59
:1033E0000A900B91FEF7CAFE002800D1C0E001232D
:1033F0009C46E2445046FEF7D3FE02000B000898BC
:103400000999FEF7ABFE002802D000239A46013549
:103410004346002B6AD008AB17269C4608956644A5
:10342000554614E001235B4243440A2128009A4692
:10343000FEF7E0FB013430313719397028000A21DA
:10344000FEF7D8FB092D00D8D0E0D0460500202C8F
:10345000E8D10EAB98460323249A1340012B00D1E8
:1034600096E02023249A01930392239A43460292E2
:103470001EE0249B58460493239B009601970393D8
:1034800043460C9A029307994B46FFF7FDFC17B091
:10349000F0BCBB46B246A946A046F0BD249B5B07E4
:1034A0000ED40322694B249901920391239902912E
:1034B000009358464B460C9A0799FFF7A9FBE6E79D
:1034C0000422634BEFE73B00320000200021FEF7AF
:1034D000CCFD012306000F000D9344E7249B0393CA
:1034E000239B0293042301935A4BE1E72800FEF744
:1034F0005BFE02000B0030003900FEF7B6FD524BB8
:10350000002206000F00FEF723FE0EAB98460028AF
:103510000AD10022300039004B4BFEF72FFE002865
:1035200002D1EB0700D50135202C94D008AA94468F
:103530001723280063440A2101341E19FEF732FBC9
:103540003031280031700A21FEF72CFB051EEBD12B
:103550000323249A1340012B1BD0202C00D180E799
:103560000D9B002B35D02D224146631C0A5579E76F
:1035700000220A980B99344BFEF7EAFD002800D090
:1035800046E75346002B51D101239C46E2443FE7D6
:103590002024239B002BE0D00D9B002B03D1249AE9
:1035A0000C33134202D0239B013B2393239BA34262
:1035B000D3D908AB9C46172230236244202C00D17B
:1035C0004FE72399013413558C42C6D0202CF8D1F3
:1035D00047E7249B5B0724D4249A2300120700D4D6
:1035E00040E72022414601330A553BE75746089DF4
:1035F000202C00D12DE7220030214046002F09D099
:103600000132B154202A00D123E7D3431B191B18E0
:10361000002BF5D10EAB98462E234146541C8B54FB
:1036200082E72B224146631C0A551BE7DB0700D4C7
:10363000EEE6A9E7FFFFEFFFFFFFEF7F65CDCD418E
:1036400065CDCDC1286401100000E03F2C6201105F
:10365000306201103C620110249B0393239B029370
:1036600003230193004B23E738620110F0B5DE46D7
:103670004E4657464546E0B59FB01C00289B9146F4
:103680000993C94AC94B8B4608901A60002900D19A
:1036900018E2002320789A46002800D11AE226007A
:1036A0001D005C460AE02A006F1C4B46089D210065
:1036B000A8473D0001363078002870D02528F2D187
:1036C00010239B46083B9A46043B9846023B002148
:1036D0009C46721C107816000300203BDBB2102BB6
:1036E00003D8B34F9B00FB589F460300303B092B88
:1036F00032D900230A932A2868D0002398462E281E
:103700003ED00300683BDBB2122B1CD8A94A9B00B9
:10371000D3589F46012301321943DBE76346013248
:103720001943D7E7434601321943D3E75B460132D9
:103730001943CFE7534601321943CBE780235B009F
:103740007078194301360300253BDBB2532BAAD80E
:10375000994A9B00D3589F4600270300B800C01920
:1037600001364000C018337830381A00303A07006C
:10377000092AF3D90A901800002398462E28C0D1B0
:1037800080237078DB0019430300303B721C092B47
:1037900000D8A1E12A2800D1B2E11600B1E7A34682
:1037A000AA462C00D14503D801235B424B449A46DC
:1037B0004B46524659460020089DA84720001FB09E
:1037C000F0BCBB46B246A946A046F0BD099B40CB23
:1037D0000A96002E03DB50780993561C8DE7283893
:1037E000014370420A9009935078561C85E7782867
:1037F00000D1DFE1582800D14CE26F2800D14FE31F
:10380000622801D100F030FC10230A009A430B9289
:10381000692801D000F0A9FC0A230C934B0500D5C0
:10382000D0E10B9A802311009B0019408B461A426D
:1038300000D0A1E2802311005B0019408A461A42A1
:1038400000D0B6E313005B0600D5EDE21300099942
:103850001B0601D400F076FC08C91BB2D8171A1851
:10386000424092B209919346DA0F1292002B09D18D
:10387000802310220B99DB000B4091430B91002B0E
:1038800000D0E4E20B9A6123920600D541230EA9F1
:103890001F228C46DBB262440A3B5F461395A34667
:1038A00055460C9CB2460D9316000AE03033DBB24D
:1038B00001357355A74200D2EDE2202D00D1EAE296
:1038C000070021003800FEF795F9CBB20929EDD9A0
:1038D0000D9A94466344DBB2EAE780239B0070783C
:1038E000194301362FE77078682800D1CDE1802395
:1038F0000136194327E770786C2800D1BFE1802397
:103900005B00194301361EE7462800D19BE10722E0
:10391000099B0491073393430A9A19000392424684
:1039200002920CC908980092019309912A004B4613
:103930002100FFF7CFFC01360500BCE62A006F1C12
:103940004B46089D21002520A84701363D00B2E6E0
:103950008B0700D4ADE1099B2A009A466B1C984660
:10396000534601CB21009A46089F4B46C0B2B84748
:103970000A9B9C466544012B00D886E2089B47467B
:10398000B04626004C4699463A00230001373100E4
:103990002020C847AF42F7D1A146534634004646DF
:1039A0000993013687E6C0466D3600109C740020EE
:1039B0004462011088620110D4620110099B04CB9B
:1039C0009B4643460992002B00D1C6E013789C46E3
:1039D000002B00D1BDE34346013B099A0133D018C7
:1039E0000A9F130001E0834203D05A780133002A72
:1039F000F9D1099A0A979B1A0B9380230A00DB00DE
:103A00001A400C92194204D00B9B434501D94346FE
:103A10000B9302231A000A400D920B4200D187E15A
:103A20006046002800D168E10C9B002B00D10DE11D
:103A3000A844C246099B57465B1B9846089BB24662
:103A40002A0026004C46994609E023003100551C07
:103A5000C8474346585D002800D126E12A00974216
:103A6000F3D1A1463D00340056460D9B002B00D0FB
:103A700043E15B46013609931DE6099B1A0008CA1B
:103A80009246002B48D0212211438B460EA8844633
:103A90001F216144099500220F27A4460D0002E072
:103AA000202A0CD00B003C001C4020003730092C91
:103AB00000D807380132A85419090F2BF0D86446F2
:103AC000099D32E0DC4B2078089300239A460028B9
:103AD00000D0E4E5002465E6434606000A9F98000E
:103AE000C0180132400080191678030030003038C9
:103AF000303B0928F3D93000984616000A9700E6B3
:103B0000099B023604CB9046D2434046D217104060
:103B1000804609933078F4E5102208009043113272
:103B20001043834600224905B0D55B46069308231F
:103B3000059343460493102303930023029316AB8B
:103B4000019200932A004B4621000898FFF7AEF837
:103B50005346050001360993ADE513789C46002BCA
:103B600000D1F7E202235B4237E7202302009A43A9
:103B7000472A04D180231B01194302239843452877
:103B800001D1202319430722099B04910733934352
:103B90000A9A19000392424602920CC908980092B0
:103BA000019309912A004B462100FFF76DF9013678
:103BB000050080E510230C930C230A009A430B9216
:103BC0004B0503D501230B9A9A430B92692800D128
:103BD00027E6642800D124E60B9A802311009B007D
:103BE00019408B461A4200D066E1802311005B0029
:103BF00019408A461A4200D039E213005B0600D50C
:103C00003CE113001B0600D4A6E2099B04CB12047E
:103C1000120C934609935B46002B00D09AE10B9A55
:103C20001033110099430B91520500D492E1002307
:103C30009A460B9B06930A9B0593434604930C9B61
:103C4000039300230CE12023194360E6099B0A9AA1
:103C50005B1B98464B4691461F00B2462600089CC7
:103C60002A003B003100A04743460135585D00283B
:103C7000F6D14A463400B94656460A92F5E6C023C4
:103C80009B00B078194302365DE5C023B078194334
:103C9000023658E50C230A009A4314331A43103BAA
:103CA0000B920C934B058DD496E7A14634005646F3
:103CB000DBE60A9A012A00D853E26B1E9F18089B84
:103CC000B04626004C4699462A00230001353100B3
:103CD0002020C847BD42F7D1A14634004646099B83
:103CE0003A0001CB210098467D1C4B46089FC0B28C
:103CF000B847434601360993DDE40B9B0A9AA84670
:103D00009A4200D8B5E694466544ED1A089B4746AA
:103D1000B04626004C4699463A0023000137310050
:103D20002020C847AF42F7D1A14634004646A0E65E
:103D30000B9A0A99531C914200D814E24B199B1A12
:103D40001F00089BB24626004C4699462A002300D5
:103D5000013531002020C847BD42F7D10A9BA1465A
:103D600001330B93099B34001B7856469C466046F2
:103D7000002800D058E67CE60722099B07339343CE
:103D8000013294469C4462465F6809921A68FB17A8
:103D90001093119310981199030053400E930B0048
:103DA0007B400F9394460E9A0F9B121A8B410E92F2
:103DB0000F93FB0F6246129300233A439B463DD07C
:103DC0000B9A6123920600D541230022DBB20EA993
:103DD0000A3B8C4692460D9343461F32624413952C
:103DE000159655460E9E0F9FA24690460C9C149326
:103DF0000CE03032D2B2434601355A55BB4500D1B2
:103E00008AE1202D00D18AE106000F002200002364
:103E100030003900FDF72CFFD2B2092AE9D90D9BF9
:103E20009C466244D2B2E6E7FF23099904C91340D5
:103E30001A00099117E5C0460D2C00100B9A10339B
:103E4000110099430B915205BAD500239A460B9B5A
:103E500006930A9B0593434604930C9B0393129B82
:103E600002935346019316AB2A00009321004B4660
:103E70000898FEF71BFF013605001CE4FF22099B92
:103E800002CB11408B460993C5E65346454609933C
:103E90000136FFF710FC56465C46AA46139DD6E74E
:103EA00008230C930B910B99642800D084E60B9B9C
:103EB0005B0500D586E6B4E40722099B07339343EC
:103EC000013294469C44624609921A685B6810006D
:103ED0009B4613005A46134307D10B9A1033110027
:103EE00099430B91520500D5A1E60B9A61239206E6
:103EF00000D541230022DBB20EA90A3B8C46924634
:103F00000D9343461F3262445F461295A3465546C1
:103F10000400B24690460C9E13930DE03032D2B2AC
:103F2000434601355A550023BB4200D100E1202D04
:103F300000D100E104000F0032000023200039000E
:103F4000FDF796FED2B2092AE8D90D9B9C46624441
:103F5000D2B2E5E70B9A6123920600D54123DBB28A
:103F60000EA90A3B1F228C460D93230062445C4637
:103F70001295170055469B46B2460C9E08E030331A
:103F8000DBB201357B55B4420ED3202D0CD004009A
:103F900031002000FDF72EFECBB20929EFD90D9A92
:103FA00094466344DBB2ECE756465C46AA46129D53
:103FB0003FE6099B1A0008CAD91713925A184A40BB
:103FC0009246DA0F1292002B08D1802310220B990F
:103FD000DB000B4091430B91002B2BD10B9A6123FB
:103FE000920600D541230EAA1F279446DBB20A3B56
:103FF0000D9567445D460993A3465446B2460C9E10
:1040000008E03033DBB201357B55B4420ED3202DAE
:104010000CD0040031002000FDF7ECFDCBB20929E3
:10402000EFD9099A94466344DBB2ECE756465C4606
:10403000AB460D9D0B9B2A0006930A9B210005931E
:10404000434604930C9B08980393129B01360293FA
:104050005B46019316AB00934B46FEF727FE139B7E
:1040600005000993FFF727FB02230C931AE7099B2E
:1040700004CB92461293002A08D1802310220B9978
:10408000DB000B4091430B91002B2BD10B9A61234A
:10409000920600D541230EAA1F279446DBB20A3BA5
:1040A0000D9567445D460993A3465446B2460C9E5F
:1040B00008E03033DBB201357B55B4420ED3202DFE
:1040C0000CD0040031002000FDF794FDCBB209298B
:1040D000EFD9099A94466344DBB2ECE756465C4656
:1040E000AB460D9D0B9B2A0006930A9B210005936E
:1040F000434604930C9B08980393002302935B466A
:10410000019316AB00934B46FEF7D0FD129B0500C2
:1041100009930136FFF7CFFAB44200D871E6149B39
:1041200054460E960F97AA469846159E139D8EE606
:10413000A64200D8FBE6139B56469846AA465C4624
:10414000129D76E508C9D8171A1842400991FFF761
:104150008AFB00230B9350E4099B04CB93460993FD
:1041600059E52F00BBE50B9301E6063B0C939AE65D
:104170000CB410B584B006AC08CC0A000094010061
:1041800004480394FFF772FA04B010BC08BC02B0F4
:104190001847C046052C001000B583B000931300EB
:1041A0000A0001000248FFF761FA03B000BDC046F3
:1041B000052C001010B5094A0300146884B0002CC7
:1041C00008D0012200910648524203A9A0470120CD
:1041D00004B010BD00F080F90020F9E79C740020C5
:1041E000792E001000BEFDE7094A03001068002880
:1041F00005D00849C3188B4207D81360704706489A
:104200000449C31810608B42F7D901204042F5E7FA
:1042100088700020000004205876002010B5FFF7B9
:10422000E1FFC04670B5FDF7E5FB074D074EB5420F
:1042300009D20024013E761BB60808CD984723001A
:104240000134B342F9D170BDAC600110BC60011003
:10425000030010B5080011001B68984710BDC04648
:10426000030010B5080011001B68984710BDC04638
:10427000F0B5DE4657464E464546E0B585B01700D8
:104280001C0006000D00FDF777F90023314A1218D3
:104290004B41002B59DB304908008A4611F0C0FE23
:1042A00001906B1C03D1300011F00AFA0500002CBC
:1042B00026D12A4B98462A4B1C68002C15D0002F7B
:1042C00021D1284F02E02469002C0ED02368002B56
:1042D000F9D03B68002B01D0A342F4D120002A0082
:1042E0003100C0472469002CF0D1019B002B28D15C
:1042F000280005B0F0BCBB46B246A946A046F0BDBA
:10430000194B9846D7E7174B994602ABDF1D0A2396
:104310009B4602E02469002CE7D02368002BF9D0EB
:104320004B461B68002B01D0A342F3D12A00310079
:104330002000C0475B460122390020003B70C04787
:10434000E8E7504611F03CFED2E70122074B52420B
:10435000A1E7C04640420F001C1A00205142001045
:104360002C7000203470002061420010FFFFFF7F9E
:104370000A4A1368002B05D10CE01A001B691032A1
:10438000002B07D09842F8D1002902D103691360AD
:10439000016170470029FCD01060FAE72C70002002
:1043A00010B500F0D7FA10BDF0B5CE464746040070
:1043B00080B583B0FDF7E0F82600002736184F419E
:1043C000002F30DBB9461A4B1A4D984643461C68FD
:1043D000002C03D116E02469002C13D02B68002B8D
:1043E00001D0A342F7D1A368002BF4D0012101A88A
:1043F00098470028EFDD6B46187903B0C0BCB9467A
:10440000B046F0BD0C4B5A6A4A4507D39B6AB3428B
:1044100001D24A4502D002204042EEE701200021AD
:10442000FDF7B4F8D2E70126044B76429946CAE775
:104430002C7000203470002000400540FFFFFF7FFB
:10444000F0B5CE46474680B583B06B460600DD1D0D
:104450002870FDF791F800231A4A12184B41002BDF
:104460002BDB19490800884611F0DAFD174B81460D
:104470001C68002C14D0164F02E02469002C0FD0C9
:104480002368002BF9D03B68002B01D0A342F4D164
:10449000200001222900FFF7E3FE2469002CEFD160
:1044A0004B46002B05D1300003B0C0BCB946B04626
:1044B000F0BD404611F084FDF5E70122054B524264
:1044C000CFE7C04640420F001C1A00202C7000208D
:1044D00034700020FFFFFF7F70B5040011F0F0F88A
:1044E00001230100050001222000FFF7C1FE084B57
:1044F0001C68002C06D06368002B05D098472469FF
:10450000002CF8D1280070BD2469002CF3D1F9E704
:104510002C7000207047C0460022014B1A70704773
:10452000547600204B790020FF2B0BD18B79002B88
:1045300008D1CB79012B05D1082A03D98A78024BFF
:1045400009301A707047C046547600200120704729
:1045500010B5012909D115495379107909781B0241
:1045600003430020994202D010BD0120FCE753789C
:10457000012B08D0022BF7D1002064220021FDF787
:1045800083F90120F0E7D37891781B021943DB050A
:1045900007D54A0A100001231A407E331940FDF75F
:1045A000F9F901204A0A4042F5E7C0465476002056
:1045B000004870479864011070B505001400012090
:1045C000012909D153780020012B05D16379127993
:1045D0001B021343072B00D070BD21002800024AA4
:1045E0009F3301F04FFAF7E7BC6401100123037019
:1045F000004870477864011048780B788A78000288
:104600001843120410439622CB7810B51B060343BF
:10461000D200934200D010BD002201201100404280
:10462000FDF7B8F9024B1860024B19607047C0469D
:10463000EC6B0020F06B002010B5024B1878FCF7F3
:1046400075F910BD55760020154B70B51A68002A13
:1046500022D0EFF3108172B610680028FCD0BFF3AF
:104660005F8F00220F48596002701B68BFF35F8F95
:104670001A6081F31088002400250B4E3078FCF777
:1046800049F9002804D1002400252900200070BD2C
:104690003078FCF74BF9F8E7FA240025A400ECE7A2
:1046A000C8740020567600205576002070B50400AE
:1046B00000200E0001F008FB002835D0002001F09A
:1046C0001BFB002830D0FCF757FF0023184A1218B4
:1046D0004B41002B24DB174D280011F0A1FC0028D2
:1046E00022D0002001F0F0FA00280BD10120002197
:1046F0000324404200F0F8FC6442280011F060FC02
:10470000200070BD002001F0F7FA0028EED0210053
:104710003200002001F0FCFA041EEED1033CECE76D
:104720000122054B5242D6E703246442E8E7C04623
:1047300040420F0058750020FFFFFF7F10B5FCF7C7
:104740001BFF00230E4A12184B41002B13DB0D4CAC
:10475000200011F065FC00280CD00120002140420F
:1047600000F0C2FC002001F01FFB0028F5D1200062
:1047700011F026FC10BD0122034B5242E7E7C04670
:1047800040420F0058750020FFFFFF7FF8B5DE465E
:10479000574680B505000C00FCF7EEFE0023364AB4
:1047A00012184B41002B5ADB344908008A4611F09D
:1047B00037FC002803D1C0BCBB46B246F8BD002080
:1047C00001F082FA00284ED00026002C43DD2C4B4D
:1047D0009B4614E0A919002001F022FB07000120EC
:1047E0000021404200F080FC002001F0DDFAFCF7DF
:1047F000C3FE234BF61918605960B4422BDD00202C
:1048000001F030FBA71B0200B84200DD3A00002A8D
:10481000E0D101200021404200F066FC002001F0C0
:10482000C3FA002001F050FA002814D0002001F053
:1048300019FB0028E1D1FCF79FFE5B460F001A68C8
:104840005B68002184460F4812184B419F4202D8F2
:10485000D3D19445D1D9504611F0B2FBABE7012238
:10486000094B5242A0E700200021054B1860596017
:10487000504611F0A5FB9EE740420F0058750020FE
:104880007861002020A10700FFFFFF7F30B52A4C90
:1048900085B00021200011F0B3FB00281CD1274B6C
:1048A0001A68002A16D0EFF3108172B6106800283B
:1048B000FCD0BFF35F8F01242148596002781B6848
:1048C000D2B20470BFF35F8F0020186081F31088AC
:1048D000002A17D005B030BD01200021404200F071
:1048E00003FC002001F008FA0500200011F068FB2D
:1048F000002DEFD0134B1B68002BEBD0124A106831
:104900009847E7E7FCF722FC0400FCF735FEFA22A3
:104910000023920012184B41002B09DB0121029168
:1049200000210191094920000091FCF713FCD1E717
:104930000122074B5242F1E758750020C87400204D
:1049400056760020EC6B0020F06B002049460010EA
:10495000FFFFFF7FD02310B51B0684B01C68FCF757
:10496000F5FBFCF7F1FCA04202D0002004B010BD22
:10497000284B1B7801F078FD27480368002B41D0B5
:104980000120FCF769F9FF23244C254920701840C9
:10499000FBF7EAFF20780121FBF7AAFF0520FBF7D0
:1049A000CDFF002821D1082200211E48FEF7D6F8AD
:1049B000FCF7CCFB0400FCF7DFFDFA220023920099
:1049C00012184B41002B20DB0121029100210191A3
:1049D000154920000091FCF7BDFB0028C5DB1348FA
:1049E0000121FFF7C5FC0120C0E70120FBF750FFC4
:1049F00001000C48FCF796F9002205200C49FBF752
:104A0000DDFFECE7FCF770F9BAE70122094B5242EF
:104A1000DAE7C046DC760110587500205576002094
:104A20008D480010C87400204946001080100020F6
:104A300039460010FFFFFF7F0048704704660110F1
:104A400000487047B065011070B50400174803783E
:104A5000002B21D0002C06D1C1241548154BA400F1
:104A60004380048070BD052C1DD8134B1048A40052
:104A7000E558811C002304E001330A800231132B26
:104A80000ED0EA5CDCB2002AF6D1C0230134E4B2D5
:104A900064009B001C43E4E7112100F017F8D9E7FC
:104AA000CA24A400DDE70020DCE7C046E87500204A
:104AB00004700020090400001866011010B50248B7
:104AC00000F0D8F810BDC046F874002030B54B1E79
:104AD000012900D1A7E0664A11780D112C0030346D
:104AE0009F2900D9A2E00470012B00D1BEE00F2164
:104AF000147821400C003034092900DD98E044701E
:104B0000022B00D1B2E054782511290030319F2CBE
:104B100000D990E08170032B00D1A7E00F21214044
:104B20000C003034092900DD87E0C470042B00D16B
:104B30009CE094782511290030319F2C00D97FE02A
:104B40000171052B00D191E00F2121400C00303480
:104B5000092900DD76E04471062B00D186E0D47887
:104B60002511290030319F2C00D96EE08171072B6F
:104B700000D17BE00F2121400C003034092966DC94
:104B8000C471082B00D171E014792511290030314E
:104B90009F2C5FD80172092B68D00F2121400C0097
:104BA0003034092958DC44720A2B5FD0547925111E
:104BB000290030319F2C52D881720B2B56D00F21F7
:104BC00021400C00303409294BDCC4720C2B4DD031
:104BD00094792511290030319F2C00D907310173B8
:104BE0000D2B43D00F2121400C003034092901DD69
:104BF00037310C0044730E2B38D0D1790C112200C0
:104C000030329F2900D9073282730F2B2ED00F220A
:104C10000A4011003731092A01DC30321100C1731A
:104C2000102B23D010300023037030BD07345AE717
:104C300037310C0063E707316CE737310C0074E75C
:104C400007317DE737310C0085E707318EE73731D3
:104C50000C0095E707319DE737310C00A3E70731DA
:104C6000AAE737310C00C4720C2BB1D1C018DAE7B7
:104C7000F874002030B5002589B004000922002115
:104C800001A80095FDF76AFF0922002105A80495F7
:104C9000FDF764FF4B236A466846137004A90D2292
:104CA00011F086F91521082220006944FDF75CFF08
:104CB00009B030BDF8B500F03DF90C23184DFF22C6
:104CC000AB6705201749FBF779FE174C40220021FE
:104CD0002000FDF743FF4027002301262121134A2E
:104CE00066702783A260136063545F316184453925
:104CF00063540F4A0F496360E2602787A1620B602B
:104D00006362E26211F0A4F980239B052E64EB64D8
:104D10009023094AEA508022084B5202DA64F8BD17
:104D200000001150F90400208C7000208400105005
:104D3000000110508000105010D0010000201150D0
:104D400010B501210520FBF7D3FD10BD10B50022E1
:104D50000021024800F00EF910BDC046AC700020E2
:104D6000044B1970002904D080219023024A890243
:104D7000D15070474D760020002011500B785B0613
:104D800002D14B78052B00D070478A78014B1A600E
:104D9000FAE7C04600001150F0B5C64600B54B79A1
:104DA0000C791B0288782343CC787F21A40701402B
:104DB000C509A20F4F001400324E7A195201B218E1
:104DC000907001206840507000205B055B0DD07032
:104DD0001383D4768046CA00012D33D02A488446F6
:104DE000880162448446B444604682604046106054
:104DF000002933D0254AC90090466246414451609B
:104E00003F223F339343022C00D15B0020487A19A4
:104E100001685201B218D1601E4ACB18036051409C
:104E20005340802288465201934228D84346A40624
:104E30001C4380237F197F011B06F6191C437368EE
:104E40001C6011E014488446880162448446B444DE
:104E50006046826240461060002909D100236D013E
:104E6000761973600D4BF360012080BCB846F0BD2D
:104E7000084AC9009046624641445162C0E7FCF7C7
:104E8000B3FDD3E78C700020840010500400105054
:104E9000B07400200000105080001050000110502D
:104EA00010B511F0D5F810BD10B57F200C002040D2
:104EB0004000E409110000191A00034B4001C0181A
:104EC00000F058F8012010BD8C7000207F221300E4
:104ED00010B50B400A420BD0C90980225800401877
:104EE0000649400140181201002111F0B9F810BD27
:104EF00002220348C909521A8266EEE78C7000202C
:104F0000002011507F22100010B508400A4200D145
:104F100010BD0023C9094000401804494001081889
:104F200000220349C37011F09BF8F1E78C70002058
:104F3000FFF7FFFF80220A4B520410B51A60094B9D
:104F400009491A6010000B689843FBD180220021A8
:104F500052010648FDF702FE0922054B5A6710BDB3
:104F600000E0004000F0004008C000400000105089
:104F70000000115070B5837E04000D001600002B58
:104F800017D10023E38201332000A682A376256196
:104F900011F026F8002804D080219023084A8902C5
:104FA000D150200010F0FCFF002805D0012323770A
:104FB00070BD11F045F8E4E7200011F039F8F7E78B
:104FC000002011507047C0467047C046002070470F
:104FD000002070477047C0467047C0467047C046C3
:104FE0007047C046024B5878431E9841C0B2704784
:104FF00004670020024B18784007C00F7047C04676
:1050000004670020F8B54746CE4680B52B4F804652
:105010003B780120FF2B03D0C0BCB946B046F8BD99
:10502000002154222648FDF799FD0022254C264BED
:1050300020001A70FBF758FE244B1C60244C200003
:105040001430FBF75FFE200001F0DCFD214B224D08
:105050001C60224B002B04D02800FFF7C7FA204B1E
:10506000186020490024002389462A781C4E10E04D
:105070003268630194466344002B12D05B68002BB6
:105080000FD098472A780134E4B2511C2300A14282
:1050900009DBA242ECD89B1A5B014B445B68002BF6
:1050A000EFD10020B8E7434640463B70FFF702FED1
:1050B0004046FFF745FE0120AEE7C046B010002095
:1050C00004670020BC6600204E7600205867002050
:1050D000941000205C6700204C760020ED45001005
:1050E000D863002034670110F0B5DE4657464E46BF
:1050F0004546E0B5C44B8BB01B78FF2B00D12EE1A9
:10510000C24BC34D9A4607AC2E687269EFF310810B
:1051100072B61368002BFCD0BFF35F8FB161300013
:10512000210001F0B1FB7269B369BFF35F8F002109
:10513000116083F31088002800D110E16378082BF8
:10514000E2D852469B00D3589F466368002BDBD0C1
:10515000A0689847D8E77F232179AE4E0B405800CE
:10516000CA093618B6183200012730321079B84310
:10517000107110790337B8431071002B00D1F7E09C
:10518000A54A337D1278934200D3E5E0A34A5B0140
:105190001268D318002B00D1E1E09E696279207873
:1051A000A368B047B0E79E4A1378002B00D1D6E041
:1051B0001378013BDBB213701378002BA4D10122CA
:1051C000944B01211B7893481343924A914E1370DC
:1051D0003423D25C8A43C254C25C04208243F2541A
:1051E0000133F25C8A43F254F25C8243F254237836
:1051F00000209B4600F0AEFC602223791A40602A12
:105200000DD0402A00D1BEE0DB06DB0E012B00D121
:105210000EE1022B00D1D0E0002B00D1BFE02078BE
:105220000021FFF753FE80212078FFF74FFE6BE748
:10523000784E3378DB0700D466E7FFF7D1FE63E7EB
:10524000744BDB78DB0700D45EE76068FFF7BCFED9
:105250005AE7704E3378DB0700D455E73078000703
:10526000C00FFFF7BBFE4FE76E496B4E23788B46AE
:105270006A4998468946310032780023464600271D
:10528000884611E04A4612687B0194466344002B2D
:105290006CD0DB683000984743461A780137FFB27C
:1052A000511C3B008F4241DC9742EBD39B1A5B01C0
:1052B0005B44EEE75B49584E23788B465749984646
:1052C000894631003278002346460027884611E09F
:1052D0004A4612687B0194466344002B21D0DB6868
:1052E0003000984743461A780137FFB2511C3B0003
:1052F0008F4205DCBA42EBD89B1A5B015B44EEE7B8
:10530000444E542200213000FDF728FC1022FF21DA
:10531000301DFDF723FC30002022FF211430FDF763
:105320001DFC00F00DFCFFF757FEEDE6394E542250
:1053300000213000FDF712FC1022FF21301DFDF787
:105340000DFC30002022FF211430FDF707FC00F097
:10535000F7FB2379B370D7E6501C98420EDA0BB0F6
:10536000F0BCBB46B246A946A046F0BD294EEEE7CA
:1053700062792078A36800F001FCC5E69B1A294AEF
:105380005B01D31809E7284800F0E4FB01215846E7
:1053900008AAFFF711F9002800D0B5E63FE7202A58
:1053A00000D14EE1002A00D039E76379092B00D9FA
:1053B00035E71E4A9B00D3589F467023217A0B4243
:1053C00000D02CE77F26CB0998460E40114B760083
:1053D0009B1943441F7D104B1B789F425ED3581C82
:1053E000B84200DA49E1FF1A0E4B7F01DF19002AAB
:1053F00000D146E1786900F0ADFB012158467B6998
:1054000008AA9847C7E7C046B01000208C66011074
:105410005C670020046700204C760020D8630020E1
:105420004E76002034670110B9450010B0660110B7
:10543000237A0F2B00D9F2E6D64A9446D64A634423
:105440001B791278934234D3511C994200DAE6E674
:10545000D24E9B1A5B01F618706900F07BFB0121AC
:105460005846736908AA9847002800D04CE6602285
:10547000160023791E401A4200D0D0E663790A3B19
:10548000012B00D9CBE600F065FB63790A2B00D134
:1054900050E1584608A900F0DDFA35E6C04B7F011F
:1054A0001B68DF19002A00D1EBE0002F00D1B6E61F
:1054B000A0E7BB4A5B011668F618002E00D1AEE6E5
:1054C000CAE7B44BA7795B789F42E2D0B14B5B78D7
:1054D000002B00D06AE1AF4B5F70002F00D155E187
:1054E000781EC0B2FFF7ACFA002800D14AE1437839
:1054F0000493022B00D045E10121C279931152118E
:105500000B400A4012015B011343A24A2F3112786B
:105510008A4313439F4A137009239946C3788278BC
:105520001B021343C31802939D4B814498464F4678
:10553000029BBB4200D806E101227B7800920B2B34
:1055400004D1FB7800933B78FF187B78042B00D0C4
:1055500018E1029BB946DB1B9BB203938E4B1E786E
:1055600000231F0001931BE0424612687B01D618FE
:10557000002E00D106E149465846039A3369984700
:105580000590082803D9039A824200D3DEE0824BBB
:1055900001371E78FFB2731C01979F4200DDF1E0D6
:1055A000BE42E1D8019B9E1B7C4B76019C46664423
:1055B000E1E7784B06AA5B78023213705846012364
:1055C00008A900F05FFA9FE5E088030AC0B20F2B3C
:1055D00000D924E673499A008A58974608A800F033
:1055E000BFFA5846A179FFF7B1FB0222694B1B783D
:1055F0001343684A137087E5E388012B00D00EE659
:105600000822644B1B789343624A137041E70220DF
:10561000604B197806AB9A1C8B068908DB0F01409A
:105620000B4313805846022308A900F02BFA6BE5C0
:10563000E388012B00D0F2E50822564B1B78134378
:10564000E2E7237A0F2B00D9E9E5524A9446524A01
:1056500063441B791278934227D2514A5B01166842
:10566000F618002E00D1DAE5706900F073FA012116
:105670005846736908AA98478DE60027002A00D08B
:10568000CDE50222637999469343012B16D04B4610
:10569000002B00D0C3E53F4B06AA9B19434430338F
:1056A0001B7902329B07DB0FBBE7511C994200DAE2
:1056B000B5E53A4E9B1A5B01F618D5E7E388002B57
:1056C00012D14B46012B24D0374B1878FFF7FEFB45
:1056D0000221304B9B19434430331A790A4301218C
:1056E0001A711A790A431A71002F00D10CE57869F2
:1056F00000F030FA7B6908AA01215846984700203B
:1057000000F028FA3523234AD35CDB0700D5FBE4FD
:10571000BFE6254B1878FFF7F5FB02211D4B9B19BF
:10572000434430331A798A4349461A711A798A43B5
:105730001A71D9E706AB9A1C5846012308A91670BE
:1057400000F0A0F9E0E4FFF745FCA2E63B004F467D
:105750009946009B012B00D189E0009B002B75D05E
:1057600000234E46B97805E016710133009ADBB28A
:1057700093426AD207485A188446D2B262441079DA
:10578000FF28F1D00023034A537048E5FFF724FCBB
:105790007FE6C046046700204C7600203467011085
:1057A000D8630020D8660110B010002000215846B0
:1057B000FFF7D6FA5846FFF773FB454B454E9B78EB
:1057C00045490093894600233100327888461E00FF
:1057D00011E04A461268730194466344002B22D0BC
:1057E000DB685846984743461A780136F6B2511C92
:1057F00033008E4207DCB242EBD89B1A374A5B017A
:1058000094466344ECE7542200213148FDF7A6F9A1
:105810002F4B1022FF21181DFDF7A0F92022FF2198
:105820002F48FDF79BF92A4B009A9A7053E6FEF732
:10583000BFFE021E00D1F2E4D37891781B020B4325
:10584000584608A900F01EF9A5E5B146059E4B464D
:1058500032003900224800F08DFEB4461D4B019AFB
:105860001B7867440133934200DB61E68AE71D4BF6
:1058700032699A4200D073E7049B009370E7FFF708
:10588000A5FB021E00D1CAE45846137808A900F00F
:10589000F9F880E52189FFF7D7F8021EF4D1BEE4BC
:1058A000022B0FD0FFF794FB021EC5D1B7E4FFF720
:1058B000C3F8021E00D1B2E41223584608A900F032
:1058C000E1F868E5FFF7BCF8021EB5D1A7E4C046D1
:1058D000046700204C760020D86300203467011054
:1058E00018670020695F0010F8B557464E46DE463F
:1058F00045460C00E0B516001F00002A3CD070237E
:1059000098461E4B00259B461D4B9A461AE05B4667
:105910001B78200099465346997800F0EFFD002847
:105920001CD021004846FFF737FA002816D0A3788C
:10593000DA09012A19D00A9A013513702378E4187C
:10594000B54219DA6378052B08D1E3789B079B0FE2
:10595000BB4203D14246A3781A42D8D00020F0BC03
:10596000BB46B246A946A046F8BD0B9A0135137056
:105970002378E418B542E5DB0120F0E7B010002001
:1059800004670020702270B58B780C001A4201D099
:10599000002070BD064B20001D78064B997800F062
:1059A000ADFD0028F4D021002800FFF7F5F9F0E75D
:1059B000B010002004670020074B080019687F23FF
:1059C00010B50340C0095B0034301818034B181899
:1059D00000F050FD10BDC04658670020046700204D
:1059E000074B080019687F2310B50340C0095B000E
:1059F00034301818034B181800F064FD10BDC04671
:105A000058670020046700207F2070B508400F4CC5
:105A10004000CD0924186419303425790020ED07A1
:105A200000D570BD012625790948354300782571D8
:105A3000FFF73AFA0028F4D1012223799343237126
:105A40002379033293432371EBE7C04604670020B8
:105A5000B010002070B50A4E0500300008220C007E
:105A6000FDF782F800237F21F3602278B360914232
:105A70005B412800D90100220023FFF7C5FF70BD5C
:105A8000A8660020F8B5CE46474691462A4E80B516
:105A90000822070030000D009846FDF765F84B46D8
:105AA000B3600023F381EC79A97924020C43231C11
:105AB000444500D943469AB29046B381002C13D096
:105AC000002A1FD04B46002B34D0131C402A1FD86D
:105AD0009BB2984633787F2B20D80021174A434643
